{"abi":[{"type":"receive","stateMutability":"payable"},{"type":"function","name":"authorizeGasSponsor","inputs":[{"name":"sponsor","type":"address","internalType":"address"}],"outputs":[],"stateMutability":"nonpayable"},{"type":"function","name":"batchExecute","inputs":[{"name":"targets","type":"address[]","internalType":"address[]"},{"name":"values","type":"uint256[]","internalType":"uint256[]"},{"name":"datas","type":"bytes[]","internalType":"bytes[]"}],"outputs":[{"name":"results","type":"bytes[]","internalType":"bytes[]"}],"stateMutability":"payable"},{"type":"function","name":"gasSponsorships","inputs":[{"name":"","type":"address","internalType":"address"},{"name":"","type":"address","internalType":"address"}],"outputs":[{"name":"","type":"bool","internalType":"bool"}],"stateMutability":"view"},{"type":"function","name":"guardianApprovals","inputs":[{"name":"","type":"address","internalType":"address"},{"name":"","type":"bytes32","internalType":"bytes32"}],"outputs":[{"name":"","type":"bool","internalType":"bool"}],"stateMutability":"view"},{"type":"function","name":"guardianProtectedExecute","inputs":[{"name":"target","type":"address","internalType":"address"},{"name":"value","type":"uint256","internalType":"uint256"},{"name":"data","type":"bytes","internalType":"bytes"},{"name":"operationHash","type":"bytes32","internalType":"bytes32"}],"outputs":[{"name":"","type":"bytes","internalType":"bytes"}],"stateMutability":"payable"},{"type":"function","name":"initiateRecovery","inputs":[{"name":"account","type":"address","internalType":"address"},{"name":"newOwner","type":"address","internalType":"address"}],"outputs":[],"stateMutability":"nonpayable"},{"type":"function","name":"isOperationApproved","inputs":[{"name":"account","type":"address","internalType":"address"},{"name":"operationHash","type":"bytes32","internalType":"bytes32"}],"outputs":[{"name":"","type":"bool","internalType":"bool"}],"stateMutability":"view"},{"type":"function","name":"recoveryAddresses","inputs":[{"name":"","type":"address","internalType":"address"}],"outputs":[{"name":"","type":"address","internalType":"address"}],"stateMutability":"view"},{"type":"function","name":"revokeGasSponsor","inputs":[{"name":"sponsor","type":"address","internalType":"address"}],"outputs":[],"stateMutability":"nonpayable"},{"type":"function","name":"setGuardianApproval","inputs":[{"name":"account","type":"address","internalType":"address"},{"name":"operationHash","type":"bytes32","internalType":"bytes32"}],"outputs":[],"stateMutability":"nonpayable"},{"type":"function","name":"setRecoveryAddress","inputs":[{"name":"recovery","type":"address","internalType":"address"}],"outputs":[],"stateMutability":"nonpayable"},{"type":"function","name":"sponsoredExecute","inputs":[{"name":"target","type":"address","internalType":"address"},{"name":"data","type":"bytes","internalType":"bytes"},{"name":"sponsor","type":"address","internalType":"address"}],"outputs":[{"name":"result","type":"bytes","internalType":"bytes"}],"stateMutability":"nonpayable"},{"type":"event","name":"BatchExecuted","inputs":[{"name":"executor","type":"address","indexed":true,"internalType":"address"},{"name":"callsCount","type":"uint256","indexed":false,"internalType":"uint256"}],"anonymous":false},{"type":"event","name":"GasSponsored","inputs":[{"name":"sponsor","type":"address","indexed":true,"internalType":"address"},{"name":"beneficiary","type":"address","indexed":true,"internalType":"address"},{"name":"amount","type":"uint256","indexed":false,"internalType":"uint256"}],"anonymous":false},{"type":"event","name":"GuardianApprovalRequested","inputs":[{"name":"account","type":"address","indexed":true,"internalType":"address"},{"name":"operationHash","type":"bytes32","indexed":false,"internalType":"bytes32"}],"anonymous":false},{"type":"event","name":"RecoveryInitiated","inputs":[{"name":"account","type":"address","indexed":true,"internalType":"address"},{"name":"newOwner","type":"address","indexed":true,"internalType":"address"}],"anonymous":false}],"bytecode":{"object":"0x608060405234801561000f575f80fd5b50610ef38061001d5f395ff3fe6080604052600436106100a8575f3560e01c80634ff9df95116100625780634ff9df951461022057806359716e341461024c57806359c5efce1461026b578063781ad3031461028a5780639f57aee4146102c3578063a52d92cf146102d6575f80fd5b8063077d97d7146100b35780632e1630d3146100dc57806332d5403b146101285780634141e2201461016e57806346cde53f146101b557806349efe5ae14610201575f80fd5b366100af57005b5f80fd5b6100c66100c1366004610af6565b6102f5565b6040516100d39190610bcc565b60405180910390f35b3480156100e7575f80fd5b506101266100f6366004610c47565b335f9081526002602090815260408083206001600160a01b0394909416835292905220805460ff19166001179055565b005b348015610133575f80fd5b5061015e610142366004610c67565b5f60208181529281526040808220909352908152205460ff1681565b60405190151581526020016100d3565b348015610179575f80fd5b50610126610188366004610c47565b335f9081526002602090815260408083206001600160a01b0394909416835292905220805460ff19169055565b3480156101c0575f80fd5b506101e96101cf366004610c47565b60016020525f90815260409020546001600160a01b031681565b6040516001600160a01b0390911681526020016100d3565b34801561020c575f80fd5b5061012661021b366004610c47565b610537565b34801561022b575f80fd5b5061023f61023a366004610ccd565b6105bb565b6040516100d39190610d2e565b348015610257575f80fd5b50610126610266366004610c67565b61071f565b348015610276575f80fd5b5061015e610285366004610c67565b6107c7565b348015610295575f80fd5b5061015e6102a4366004610d40565b600260209081525f928352604080842090915290825290205460ff1681565b61023f6102d1366004610d71565b6107f2565b3480156102e1575f80fd5b506101266102f0366004610d40565b6109b8565b6060858414801561030557508382145b61034e5760405162461bcd60e51b8152602060048201526015602482015274082e4e4c2f240d8cadccee8d040dad2e6dac2e8c6d605b1b60448201526064015b60405180910390fd5b8567ffffffffffffffff81111561036757610367610dce565b60405190808252806020026020018201604052801561039a57816020015b60608152602001906001900390816103855790505b5090505f5b868110156104f7575f808989848181106103bb576103bb610de2565b90506020020160208101906103d09190610c47565b6001600160a01b03168888858181106103eb576103eb610de2565b9050602002013587878681811061040457610404610de2565b90506020028101906104169190610df6565b604051610424929190610e39565b5f6040518083038185875af1925050503d805f811461045e576040519150601f19603f3d011682016040523d82523d5f602084013e610463565b606091505b5060405164021b0b636160dd1b602082015260258101869052660819985a5b195960ca1b604582015291935091508290604c01604051602081830303815290604052906104c35760405162461bcd60e51b81526004016103459190610d2e565b50808484815181106104d7576104d7610de2565b6020026020010181905250505080806104ef90610e5c565b91505061039f565b5060405186815233907f7ffb1df8fb1cb14bf915045200c5b519c9cdd3c996c3fa9e781810674194029c9060200160405180910390a29695505050505050565b6001600160a01b03811661058d5760405162461bcd60e51b815260206004820152601860248201527f496e76616c6964207265636f76657279206164647265737300000000000000006044820152606401610345565b335f90815260016020526040902080546001600160a01b0319166001600160a01b0392909216919091179055565b335f9081526002602090815260408083206001600160a01b038516845290915290205460609060ff166106295760405162461bcd60e51b815260206004820152601660248201527514dc1bdb9cdbdc881b9bdd08185d5d1a1bdc9a5e995960521b6044820152606401610345565b5f80866001600160a01b03168686604051610645929190610e39565b5f604051808303815f865af19150503d805f811461067e576040519150601f19603f3d011682016040523d82523d5f602084013e610683565b606091505b5091509150816106cd5760405162461bcd60e51b815260206004820152601560248201527414dc1bdb9cdbdc99590818d85b1b0819985a5b1959605a1b6044820152606401610345565b336001600160a01b0385167fc9991e76367ebf3387530c533ae59ea7535aa764f043134baaf8b3dd3ad706265a610704903a610e74565b60405190815260200160405180910390a39695505050505050565b6001600160a01b0382166107675760405162461bcd60e51b815260206004820152600f60248201526e125b9d985b1a59081858d8dbdd5b9d608a1b6044820152606401610345565b6001600160a01b0382165f81815260208181526040808320858452825291829020805460ff1916600117905590518381527f100b676d774e7aa3ad6453104f5dd65b7f1b89ca9e9ecf697ddb57496795cde6910160405180910390a25050565b6001600160a01b0382165f9081526020818152604080832084845290915290205460ff165b92915050565b335f90815260208181526040808320848452909152902054606090829060ff1661085e5760405162461bcd60e51b815260206004820152601a60248201527f477561726469616e20617070726f76616c2072657175697265640000000000006044820152606401610345565b5f878787876040516020016108769493929190610e8b565b6040516020818303038152906040528051906020012090508381146108dd5760405162461bcd60e51b815260206004820152601760248201527f4f7065726174696f6e2068617368206d69736d617463680000000000000000006044820152606401610345565b5f80896001600160a01b03168989896040516108fa929190610e39565b5f6040518083038185875af1925050503d805f8114610934576040519150601f19603f3d011682016040523d82523d5f602084013e610939565b606091505b50915091508161098b5760405162461bcd60e51b815260206004820152601e60248201527f477561726469616e2070726f7465637465642063616c6c206661696c656400006044820152606401610345565b335f908152602081815260408083208984529091529020805460ff19169055935050505095945050505050565b6001600160a01b038281165f90815260016020526040902054163314610a205760405162461bcd60e51b815260206004820152601f60248201527f4e6f7420617574686f72697a6564207265636f766572792061646472657373006044820152606401610345565b6001600160a01b038116610a6a5760405162461bcd60e51b815260206004820152601160248201527024b73b30b634b2103732bb9037bbb732b960791b6044820152606401610345565b806001600160a01b0316826001600160a01b03167fe7eb1bf44bc7e6084d5d89f19e76a2b46fed60ff3eb9e650f3db79a386391c6160405160405180910390a35050565b5f8083601f840112610abe575f80fd5b50813567ffffffffffffffff811115610ad5575f80fd5b6020830191508360208260051b8501011115610aef575f80fd5b9250929050565b5f805f805f8060608789031215610b0b575f80fd5b863567ffffffffffffffff80821115610b22575f80fd5b610b2e8a838b01610aae565b90985096506020890135915080821115610b46575f80fd5b610b528a838b01610aae565b90965094506040890135915080821115610b6a575f80fd5b50610b7789828a01610aae565b979a9699509497509295939492505050565b5f81518084525f5b81811015610bad57602081850181015186830182015201610b91565b505f602082860101526020601f19601f83011685010191505092915050565b5f602080830181845280855180835260408601915060408160051b87010192508387015f5b82811015610c1f57603f19888603018452610c0d858351610b89565b94509285019290850190600101610bf1565b5092979650505050505050565b80356001600160a01b0381168114610c42575f80fd5b919050565b5f60208284031215610c57575f80fd5b610c6082610c2c565b9392505050565b5f8060408385031215610c78575f80fd5b610c8183610c2c565b946020939093013593505050565b5f8083601f840112610c9f575f80fd5b50813567ffffffffffffffff811115610cb6575f80fd5b602083019150836020828501011115610aef575f80fd5b5f805f8060608587031215610ce0575f80fd5b610ce985610c2c565b9350602085013567ffffffffffffffff811115610d04575f80fd5b610d1087828801610c8f565b9094509250610d23905060408601610c2c565b905092959194509250565b602081525f610c606020830184610b89565b5f8060408385031215610d51575f80fd5b610d5a83610c2c565b9150610d6860208401610c2c565b90509250929050565b5f805f805f60808688031215610d85575f80fd5b610d8e86610c2c565b945060208601359350604086013567ffffffffffffffff811115610db0575f80fd5b610dbc88828901610c8f565b96999598509660600135949350505050565b634e487b7160e01b5f52604160045260245ffd5b634e487b7160e01b5f52603260045260245ffd5b5f808335601e19843603018112610e0b575f80fd5b83018035915067ffffffffffffffff821115610e25575f80fd5b602001915036819003821315610aef575f80fd5b818382375f9101908152919050565b634e487b7160e01b5f52601160045260245ffd5b5f60018201610e6d57610e6d610e48565b5060010190565b80820281158282048414176107ec576107ec610e48565b6bffffffffffffffffffffffff198560601b168152836014820152818360348301375f9101603401908152939250505056fea264697066735822122090d98753b3f2e1bed650d904173de0460ec473af87202161267a9e51f805ab8264736f6c63430008140033","linkReferences":{}},"methodIdentifiers":{"authorizeGasSponsor(address)":"2e1630d3","batchExecute(address[],uint256[],bytes[])":"077d97d7","gasSponsorships(address,address)":"781ad303","guardianApprovals(address,bytes32)":"32d5403b","guardianProtectedExecute(address,uint256,bytes,bytes32)":"9f57aee4","initiateRecovery(address,address)":"a52d92cf","isOperationApproved(address,bytes32)":"59c5efce","recoveryAddresses(address)":"46cde53f","revokeGasSponsor(address)":"4141e220","setGuardianApproval(address,bytes32)":"59716e34","setRecoveryAddress(address)":"49efe5ae","sponsoredExecute(address,bytes,address)":"4ff9df95"},"id":17}