{"abi":[{"type":"constructor","inputs":[],"stateMutability":"nonpayable"},{"type":"function","name":"CRITICAL_SEVERITY","inputs":[],"outputs":[{"name":"","type":"uint256","internalType":"uint256"}],"stateMutability":"view"},{"type":"function","name":"HIGH_SEVERITY","inputs":[],"outputs":[{"name":"","type":"uint256","internalType":"uint256"}],"stateMutability":"view"},{"type":"function","name":"LOW_SEVERITY","inputs":[],"outputs":[{"name":"","type":"uint256","internalType":"uint256"}],"stateMutability":"view"},{"type":"function","name":"MAX_RISK_SCORE","inputs":[],"outputs":[{"name":"","type":"uint256","internalType":"uint256"}],"stateMutability":"view"},{"type":"function","name":"MEDIUM_SEVERITY","inputs":[],"outputs":[{"name":"","type":"uint256","internalType":"uint256"}],"stateMutability":"view"},{"type":"function","name":"acknowledgeAlert","inputs":[{"name":"_alertId","type":"uint256","internalType":"uint256"}],"outputs":[],"stateMutability":"nonpayable"},{"type":"function","name":"agentList","inputs":[{"name":"","type":"uint256","internalType":"uint256"}],"outputs":[{"name":"","type":"address","internalType":"address"}],"stateMutability":"view"},{"type":"function","name":"alertCounter","inputs":[],"outputs":[{"name":"","type":"uint256","internalType":"uint256"}],"stateMutability":"view"},{"type":"function","name":"alerts","inputs":[{"name":"","type":"uint256","internalType":"uint256"}],"outputs":[{"name":"alertType","type":"string","internalType":"string"},{"name":"description","type":"string","internalType":"string"},{"name":"severity","type":"uint256","internalType":"uint256"},{"name":"timestamp","type":"uint256","internalType":"uint256"},{"name":"raisedBy","type":"address","internalType":"address"},{"name":"acknowledged","type":"bool","internalType":"bool"}],"stateMutability":"view"},{"type":"function","name":"checkSanctions","inputs":[{"name":"_entityId","type":"bytes32","internalType":"bytes32"}],"outputs":[],"stateMutability":"nonpayable"},{"type":"function","name":"deactivateAgent","inputs":[{"name":"_agent","type":"address","internalType":"address"}],"outputs":[],"stateMutability":"nonpayable"},{"type":"function","name":"flagTransaction","inputs":[{"name":"_txHash","type":"bytes32","internalType":"bytes32"},{"name":"_riskScore","type":"uint256","internalType":"uint256"},{"name":"_reason","type":"string","internalType":"string"}],"outputs":[],"stateMutability":"nonpayable"},{"type":"function","name":"flaggedTransactions","inputs":[{"name":"","type":"bytes32","internalType":"bytes32"}],"outputs":[{"name":"txHash","type":"bytes32","internalType":"bytes32"},{"name":"flaggedBy","type":"address","internalType":"address"},{"name":"riskScore","type":"uint256","internalType":"uint256"},{"name":"reason","type":"string","internalType":"string"},{"name":"timestamp","type":"uint256","internalType":"uint256"},{"name":"resolved","type":"bool","internalType":"bool"}],"stateMutability":"view"},{"type":"function","name":"flaggedTxList","inputs":[{"name":"","type":"uint256","internalType":"uint256"}],"outputs":[{"name":"","type":"bytes32","internalType":"bytes32"}],"stateMutability":"view"},{"type":"function","name":"getActiveAlertsCount","inputs":[],"outputs":[{"name":"","type":"uint256","internalType":"uint256"}],"stateMutability":"view"},{"type":"function","name":"getAgentList","inputs":[],"outputs":[{"name":"","type":"address[]","internalType":"address[]"}],"stateMutability":"view"},{"type":"function","name":"getAgentMetrics","inputs":[{"name":"_agent","type":"address","internalType":"address"}],"outputs":[{"name":"name","type":"string","internalType":"string"},{"name":"flagCount","type":"uint256","internalType":"uint256"},{"name":"accuracy","type":"uint256","internalType":"uint256"},{"name":"isActive","type":"bool","internalType":"bool"}],"stateMutability":"view"},{"type":"function","name":"getFlaggedTransactionsCount","inputs":[],"outputs":[{"name":"","type":"uint256","internalType":"uint256"}],"stateMutability":"view"},{"type":"function","name":"monitoringAgents","inputs":[{"name":"","type":"address","internalType":"address"}],"outputs":[{"name":"name","type":"string","internalType":"string"},{"name":"agentType","type":"string","internalType":"string"},{"name":"isActive","type":"bool","internalType":"bool"},{"name":"flagCount","type":"uint256","internalType":"uint256"},{"name":"accuracy","type":"uint256","internalType":"uint256"}],"stateMutability":"view"},{"type":"function","name":"owner","inputs":[],"outputs":[{"name":"","type":"address","internalType":"address"}],"stateMutability":"view"},{"type":"function","name":"raiseAlert","inputs":[{"name":"_alertType","type":"string","internalType":"string"},{"name":"_description","type":"string","internalType":"string"},{"name":"_severity","type":"uint256","internalType":"uint256"}],"outputs":[],"stateMutability":"nonpayable"},{"type":"function","name":"registerAgent","inputs":[{"name":"_agent","type":"address","internalType":"address"},{"name":"_name","type":"string","internalType":"string"},{"name":"_agentType","type":"string","internalType":"string"}],"outputs":[],"stateMutability":"nonpayable"},{"type":"function","name":"renounceOwnership","inputs":[],"outputs":[],"stateMutability":"nonpayable"},{"type":"function","name":"reportPattern","inputs":[{"name":"_patternType","type":"string","internalType":"string"},{"name":"_entityId","type":"bytes32","internalType":"bytes32"},{"name":"_severity","type":"uint256","internalType":"uint256"}],"outputs":[],"stateMutability":"nonpayable"},{"type":"function","name":"resolveTransaction","inputs":[{"name":"_txHash","type":"bytes32","internalType":"bytes32"},{"name":"_wasFraud","type":"bool","internalType":"bool"}],"outputs":[],"stateMutability":"nonpayable"},{"type":"function","name":"riskThreshold","inputs":[],"outputs":[{"name":"","type":"uint256","internalType":"uint256"}],"stateMutability":"view"},{"type":"function","name":"sanctionedEntities","inputs":[{"name":"","type":"bytes32","internalType":"bytes32"}],"outputs":[{"name":"","type":"bool","internalType":"bool"}],"stateMutability":"view"},{"type":"function","name":"transferOwnership","inputs":[{"name":"newOwner","type":"address","internalType":"address"}],"outputs":[],"stateMutability":"nonpayable"},{"type":"function","name":"updateRiskThreshold","inputs":[{"name":"_newThreshold","type":"uint256","internalType":"uint256"}],"outputs":[],"stateMutability":"nonpayable"},{"type":"function","name":"updateSanctionsList","inputs":[{"name":"_entities","type":"bytes32[]","internalType":"bytes32[]"},{"name":"_sanctioned","type":"bool","internalType":"bool"}],"outputs":[],"stateMutability":"nonpayable"},{"type":"event","name":"AlertRaised","inputs":[{"name":"alertId","type":"uint256","indexed":true,"internalType":"uint256"},{"name":"alertType","type":"string","indexed":false,"internalType":"string"},{"name":"timestamp","type":"uint256","indexed":false,"internalType":"uint256"}],"anonymous":false},{"type":"event","name":"MonitoringAgentUpdated","inputs":[{"name":"agent","type":"address","indexed":true,"internalType":"address"},{"name":"isActive","type":"bool","indexed":false,"internalType":"bool"}],"anonymous":false},{"type":"event","name":"OwnershipTransferred","inputs":[{"name":"previousOwner","type":"address","indexed":true,"internalType":"address"},{"name":"newOwner","type":"address","indexed":true,"internalType":"address"}],"anonymous":false},{"type":"event","name":"PatternDetected","inputs":[{"name":"patternType","type":"string","indexed":false,"internalType":"string"},{"name":"entityId","type":"bytes32","indexed":true,"internalType":"bytes32"},{"name":"severity","type":"uint256","indexed":false,"internalType":"uint256"}],"anonymous":false},{"type":"event","name":"RiskThresholdUpdated","inputs":[{"name":"newThreshold","type":"uint256","indexed":false,"internalType":"uint256"}],"anonymous":false},{"type":"event","name":"SanctionCheckResult","inputs":[{"name":"entityId","type":"bytes32","indexed":true,"internalType":"bytes32"},{"name":"isSanctioned","type":"bool","indexed":false,"internalType":"bool"}],"anonymous":false},{"type":"event","name":"TransactionFlagged","inputs":[{"name":"txHash","type":"bytes32","indexed":true,"internalType":"bytes32"},{"name":"riskScore","type":"uint256","indexed":false,"internalType":"uint256"},{"name":"reason","type":"string","indexed":false,"internalType":"string"}],"anonymous":false}],"bytecode":{"object":"0x60806040526046600855348015610014575f80fd5b503361001f81610025565b50610074565b5f80546001600160a01b038381166001600160a01b0319831681178455604051919092169283917f8be0079c531659141344cd1fd0a4f28419497f9722a3daafe3b4186f6b6457e09190a35050565b611ea2806100815f395ff3fe608060405234801561000f575f80fd5b50600436106101d1575f3560e01c8063a5e740a1116100fe578063b83addde1161009e578063e616933a1161006e578063e616933a146103f6578063ec4e0203146103fe578063f2fde38b14610411578063fde3eaf214610424575f80fd5b8063b83addde146103bf578063ba12fd77146103d2578063c7690ec6146103e5578063e0680199146103ee575f80fd5b8063ae4ff7e4116100d9578063ae4ff7e414610378578063b0a0a92714610380578063b43e6cb414610393578063b55f76af1461039c575f80fd5b8063a5e740a11461030e578063a85510ca14610321578063abc4fc3414610353575f80fd5b806345f19131116101745780637e5418d0116101445780637e5418d0146102d057806387d06aff146102e35780638da5cb5b146102f6578063952fdb3114610306575f80fd5b806345f191311461028957806360edf70a14610291578063715018a6146102b55780637216fe48146102bd575f80fd5b80632b792fe4116101af5780632b792fe41461022d5780632f80c54f1461024e5780633d75e6ea146102795780633f0d8c2014610281575f80fd5b80630a1f6bd5146101d55780630f958d1d146101ea578063171d073a14610208575b5f80fd5b6101e86101e33660046117c9565b610437565b005b6101f26104a3565b6040516101ff919061187c565b60405180910390f35b61021b6102163660046118c8565b610503565b6040516101ff96959493929190611922565b61024061023b3660046118c8565b610653565b6040519081526020016101ff565b61026161025c3660046118c8565b610672565b6040516001600160a01b0390911681526020016101ff565b600554610240565b610240605a81565b610240606481565b6102a461029f36600461198d565b61069a565b6040516101ff9594939291906119ad565b6101e86107d9565b6101e86102cb366004611a5b565b6107ec565b6101e86102de366004611aca565b6109ca565b6101e86102f1366004611b0c565b610c43565b5f546001600160a01b0316610261565b610240601e81565b6101e861031c366004611b36565b610dc9565b61034361032f3660046118c8565b60046020525f908152604090205460ff1681565b60405190151581526020016101ff565b6103666103613660046118c8565b610ef8565b6040516101ff96959493929190611b80565b610240610fc1565b6101e861038e36600461198d565b611014565b61024060085481565b6103af6103aa36600461198d565b6110d2565b6040516101ff9493929190611bc6565b6101e86103cd3660046118c8565b61126e565b6101e86103e03660046118c8565b611371565b61024060075481565b610240604681565b610240603281565b6101e861040c3660046118c8565b61144b565b6101e861041f36600461198d565b6114d3565b6101e8610432366004611bf6565b61154c565b61043f6116b9565b5f5b825181101561049e578160045f85848151811061046057610460611c5e565b602002602001015181526020019081526020015f205f6101000a81548160ff021916908315150217905550808061049690611c86565b915050610441565b505050565b606060068054806020026020016040519081016040528092919081815260200182805480156104f957602002820191905f5260205f20905b81546001600160a01b031681526001909101906020018083116104db575b5050505050905090565b60036020525f908152604090208054819061051d90611c9e565b80601f016020809104026020016040519081016040528092919081815260200182805461054990611c9e565b80156105945780601f1061056b57610100808354040283529160200191610594565b820191905f5260205f20905b81548152906001019060200180831161057757829003601f168201915b5050505050908060010180546105a990611c9e565b80601f01602080910402602001604051908101604052809291908181526020018280546105d590611c9e565b80156106205780601f106105f757610100808354040283529160200191610620565b820191905f5260205f20905b81548152906001019060200180831161060357829003601f168201915b5050505060028301546003840154600490940154929390929091506001600160a01b03811690600160a01b900460ff1686565b60058181548110610662575f80fd5b5f91825260209091200154905081565b60068181548110610681575f80fd5b5f918252602090912001546001600160a01b0316905081565b60026020525f90815260409020805481906106b490611c9e565b80601f01602080910402602001604051908101604052809291908181526020018280546106e090611c9e565b801561072b5780601f106107025761010080835404028352916020019161072b565b820191905f5260205f20905b81548152906001019060200180831161070e57829003601f168201915b50505050509080600101805461074090611c9e565b80601f016020809104026020016040519081016040528092919081815260200182805461076c90611c9e565b80156107b75780601f1061078e576101008083540402835291602001916107b7565b820191905f5260205f20905b81548152906001019060200180831161079a57829003601f168201915b5050505060028301546003840154600490940154929360ff9091169290915085565b6107e16116b9565b6107ea5f611721565b565b6107f46116b9565b6001600160a01b0383166108475760405162461bcd60e51b8152602060048201526015602482015274496e76616c6964206167656e74206164647265737360581b60448201526064015b60405180910390fd5b6001600160a01b0383165f908152600260208190526040909120015460ff16156108b35760405162461bcd60e51b815260206004820152601860248201527f4167656e7420616c726561647920726567697374657265640000000000000000604482015260640161083e565b6040805160a08101825283815260208082018490526001828401525f60608301819052606460808401526001600160a01b0387168152600290915291909120815181906109009082611d1d565b50602082015160018201906109159082611d1d565b5060408281015160028301805460ff19169115159190911790556060830151600383015560809092015160049091015560068054600181810183555f929092527ff652222313e28459528d920b65115c16c04f3efc82aaedc97be59f3f377c0d3f0180546001600160a01b0319166001600160a01b03871690811790915591519081527f088c10f89c42b55cb677a2580027de3061a4a38a3af54b334600743cfacfac869060200160405180910390a2505050565b335f908152600260208190526040909120015460ff16610a2c5760405162461bcd60e51b815260206004820152601b60248201527f4f6e6c7920616374697665206167656e74732063616e20666c61670000000000604482015260640161083e565b6064821115610a725760405162461bcd60e51b8152602060048201526012602482015271496e76616c6964207269736b2073636f726560701b604482015260640161083e565b5f8381526001602052604090206005015460ff1615610ad35760405162461bcd60e51b815260206004820152601d60248201527f5472616e73616374696f6e20616c72656164792070726f636573736564000000604482015260640161083e565b6040805160c081018252848152336020808301918252828401868152606084018681524260808601525f60a086018190528981526001938490529590952084518155925191830180546001600160a01b0319166001600160a01b039093169290921790915551600282015591519091906003820190610b529082611d1d565b506080820151600482015560a0909101516005918201805460ff19169115159190911790558054600181019091557f036b6384b5eca791c62761152d0c79bb0604c104a5fb6f4eb0703f3154bb3db001839055335f908152600260205260408120600301805491610bc283611c86565b9190505550827f76c2088dd14ea425711c59cbce73db356e316f4df4290d0c0a7ee16b608669888383604051610bf9929190611dd9565b60405180910390a2600854821061049e5761049e604051806040016040528060158152602001742424a3a42fa924a9a5afaa2920a729a0a1aa24a7a760591b81525082604661154c565b610c4b6116b9565b5f82815260016020526040902060040154610ca05760405162461bcd60e51b8152602060048201526015602482015274151c985b9cd858dd1a5bdb881b9bdd08199bdd5b99605a1b604482015260640161083e565b5f8281526001602052604090206005015460ff1615610cf45760405162461bcd60e51b815260206004820152601060248201526f105b1c9958591e481c995cdbdb1d995960821b604482015260640161083e565b5f82815260016020819052604090912060058101805460ff19168317905501546001600160a01b03168115610d7b576001600160a01b0381165f908152600260205260409020600401546064111561049e576001600160a01b0381165f908152600260205260408120600401805460019290610d71908490611df9565b9091555050505050565b6001600160a01b0381165f90815260026020526040902060040154600a101561049e576001600160a01b0381165f908152600260205260408120600401805460059290610d71908490611e12565b335f908152600260208190526040909120015460ff16610e2b5760405162461bcd60e51b815260206004820152601d60248201527f4f6e6c7920616374697665206167656e74732063616e207265706f7274000000604482015260640161083e565b6064811115610e755760405162461bcd60e51b8152602060048201526016602482015275496e76616c69642073657665726974792073636f726560501b604482015260640161083e565b817fc05a981dac3c91d6c3d686cf39ddf6adabcd748d2484e4c8ab02450372477afb8483604051610ea7929190611e25565b60405180910390a2605a811061049e5761049e836040518060400160405280601981526020017f437269746963616c207061747465726e20646574656374656400000000000000815250605a61154c565b600160208190525f918252604090912080549181015460028201546003830180546001600160a01b03909316939192610f3090611c9e565b80601f0160208091040260200160405190810160405280929190818152602001828054610f5c90611c9e565b8015610fa75780601f10610f7e57610100808354040283529160200191610fa7565b820191905f5260205f20905b815481529060010190602001808311610f8a57829003601f168201915b50505050600483015460059093015491929160ff16905086565b5f80805b60075481101561100e575f81815260036020526040902060040154600160a01b900460ff16610ffc5781610ff881611c86565b9250505b8061100681611c86565b915050610fc5565b50919050565b61101c6116b9565b6001600160a01b0381165f908152600260208190526040909120015460ff1661107a5760405162461bcd60e51b815260206004820152601060248201526f4167656e74206e6f742061637469766560801b604482015260640161083e565b6001600160a01b0381165f818152600260208181526040808420909201805460ff1916905590519182527f088c10f89c42b55cb677a2580027de3061a4a38a3af54b334600743cfacfac86910160405180910390a250565b60605f805f8060025f876001600160a01b03166001600160a01b031681526020019081526020015f206040518060a00160405290815f8201805461111590611c9e565b80601f016020809104026020016040519081016040528092919081815260200182805461114190611c9e565b801561118c5780601f106111635761010080835404028352916020019161118c565b820191905f5260205f20905b81548152906001019060200180831161116f57829003601f168201915b505050505081526020016001820180546111a590611c9e565b80601f01602080910402602001604051908101604052809291908181526020018280546111d190611c9e565b801561121c5780601f106111f35761010080835404028352916020019161121c565b820191905f5260205f20905b8154815290600101906020018083116111ff57829003601f168201915b5050509183525050600282015460ff1615156020820152600382015460408083019190915260049092015460609182015282519083015160808401519390920151909991985091965090945092505050565b335f908152600260208190526040909120015460ff166112d05760405162461bcd60e51b815260206004820152601c60248201527f4f6e6c7920616374697665206167656e74732063616e20636865636b00000000604482015260640161083e565b5f8181526004602090815260409182902054825160ff9091168015158252925184927f3b2d1f064b50146e27b485e02391fa8fc7fd0682cc4200b2a5eef0a2cbdef639928290030190a2801561136d5761136d6040518060400160405280601181526020017053414e4354494f4e45445f454e5449545960781b815250604051806060016040528060268152602001611e4760269139605a61154c565b5050565b6113796116b9565b5f81815260036020819052604090912001546113c95760405162461bcd60e51b815260206004820152600f60248201526e105b195c9d081b9bdd08199bdd5b99608a1b604482015260640161083e565b5f81815260036020526040902060040154600160a01b900460ff16156114285760405162461bcd60e51b8152602060048201526014602482015273105b1c9958591e481858dadb9bdddb195919d95960621b604482015260640161083e565b5f908152600360205260409020600401805460ff60a01b1916600160a01b179055565b6114536116b9565b60648111156114985760405162461bcd60e51b8152602060048201526011602482015270125b9d985b1a59081d1a1c995cda1bdb19607a1b604482015260640161083e565b60088190556040518181527f4fb65aaa550a7ad3c7f5204be4e4f3a11a9611e25bc53583cc6c8af071ecee829060200160405180910390a150565b6114db6116b9565b6001600160a01b0381166115405760405162461bcd60e51b815260206004820152602660248201527f4f776e61626c653a206e6577206f776e657220697320746865207a65726f206160448201526564647265737360d01b606482015260840161083e565b61154981611721565b50565b335f908152600260208190526040909120015460ff168061157657505f546001600160a01b031633145b6115b15760405162461bcd60e51b815260206004820152600c60248201526b155b985d5d1a1bdc9a5e995960a21b604482015260640161083e565b600780545f91826115c183611c86565b909155506040805160c08101825286815260208082018790528183018690524260608301523360808301525f60a083018190528481526003909152919091208151929350909181906116139082611d1d565b50602082015160018201906116289082611d1d565b5060408281015160028301556060830151600383015560808301516004909201805460a0909401511515600160a01b026001600160a81b03199094166001600160a01b03909316929092179290921790555181907f93e31cac3520eb88316f5c272413fff354cb1bb439b3b6484ae35efd83b38fb0906116ab9087904290611e25565b60405180910390a250505050565b336116cb5f546001600160a01b031690565b6001600160a01b0316146107ea5760405162461bcd60e51b815260206004820181905260248201527f4f776e61626c653a2063616c6c6572206973206e6f7420746865206f776e6572604482015260640161083e565b5f80546001600160a01b038381166001600160a01b0319831681178455604051919092169283917f8be0079c531659141344cd1fd0a4f28419497f9722a3daafe3b4186f6b6457e09190a35050565b634e487b7160e01b5f52604160045260245ffd5b604051601f8201601f1916810167ffffffffffffffff811182821017156117ad576117ad611770565b604052919050565b803580151581146117c4575f80fd5b919050565b5f80604083850312156117da575f80fd5b823567ffffffffffffffff808211156117f1575f80fd5b818501915085601f830112611804575f80fd5b813560208282111561181857611818611770565b8160051b9250611829818401611784565b8281529284018101928181019089851115611842575f80fd5b948201945b8486101561186057853582529482019490820190611847565b965061186f90508782016117b5565b9450505050509250929050565b602080825282518282018190525f9190848201906040850190845b818110156118bc5783516001600160a01b031683529284019291840191600101611897565b50909695505050505050565b5f602082840312156118d8575f80fd5b5035919050565b5f81518084525f5b81811015611903576020818501810151868301820152016118e7565b505f602082860101526020601f19601f83011685010191505092915050565b60c081525f61193460c08301896118df565b828103602084015261194681896118df565b6040840197909752505060608101939093526001600160a01b03919091166080830152151560a09091015292915050565b80356001600160a01b03811681146117c4575f80fd5b5f6020828403121561199d575f80fd5b6119a682611977565b9392505050565b60a081525f6119bf60a08301886118df565b82810360208401526119d181886118df565b95151560408401525050606081019290925260809091015292915050565b5f82601f8301126119fe575f80fd5b813567ffffffffffffffff811115611a1857611a18611770565b611a2b601f8201601f1916602001611784565b818152846020838601011115611a3f575f80fd5b816020850160208301375f918101602001919091529392505050565b5f805f60608486031215611a6d575f80fd5b611a7684611977565b9250602084013567ffffffffffffffff80821115611a92575f80fd5b611a9e878388016119ef565b93506040860135915080821115611ab3575f80fd5b50611ac0868287016119ef565b9150509250925092565b5f805f60608486031215611adc575f80fd5b8335925060208401359150604084013567ffffffffffffffff811115611b00575f80fd5b611ac0868287016119ef565b5f8060408385031215611b1d575f80fd5b82359150611b2d602084016117b5565b90509250929050565b5f805f60608486031215611b48575f80fd5b833567ffffffffffffffff811115611b5e575f80fd5b611b6a868287016119ef565b9660208601359650604090950135949350505050565b86815260018060a01b038616602082015284604082015260c060608201525f611bac60c08301866118df565b60808301949094525090151560a090910152949350505050565b608081525f611bd860808301876118df565b60208301959095525060408101929092521515606090910152919050565b5f805f60608486031215611c08575f80fd5b833567ffffffffffffffff80821115611c1f575f80fd5b611c2b878388016119ef565b94506020860135915080821115611c40575f80fd5b50611c4d868287016119ef565b925050604084013590509250925092565b634e487b7160e01b5f52603260045260245ffd5b634e487b7160e01b5f52601160045260245ffd5b5f60018201611c9757611c97611c72565b5060010190565b600181811c90821680611cb257607f821691505b60208210810361100e57634e487b7160e01b5f52602260045260245ffd5b601f82111561049e575f81815260208120601f850160051c81016020861015611cf65750805b601f850160051c820191505b81811015611d1557828155600101611d02565b505050505050565b815167ffffffffffffffff811115611d3757611d37611770565b611d4b81611d458454611c9e565b84611cd0565b602080601f831160018114611d7e575f8415611d675750858301515b5f19600386901b1c1916600185901b178555611d15565b5f85815260208120601f198616915b82811015611dac57888601518255948401946001909101908401611d8d565b5085821015611dc957878501515f19600388901b60f8161c191681555b5050505050600190811b01905550565b828152604060208201525f611df160408301846118df565b949350505050565b80820180821115611e0c57611e0c611c72565b92915050565b81810381811115611e0c57611e0c611c72565b604081525f611e3760408301856118df565b9050826020830152939250505056fe5472616e73616374696f6e20696e766f6c7665732073616e6374696f6e656420656e74697479a264697066735822122041c1a3946718d1afd548024a357f8966407f9e2bd2ac996a42b8e97e2a1acaa664736f6c63430008140033","linkReferences":{}},"methodIdentifiers":{"CRITICAL_SEVERITY()":"3f0d8c20","HIGH_SEVERITY()":"e0680199","LOW_SEVERITY()":"952fdb31","MAX_RISK_SCORE()":"45f19131","MEDIUM_SEVERITY()":"e616933a","acknowledgeAlert(uint256)":"ba12fd77","agentList(uint256)":"2f80c54f","alertCounter()":"c7690ec6","alerts(uint256)":"171d073a","checkSanctions(bytes32)":"b83addde","deactivateAgent(address)":"b0a0a927","flagTransaction(bytes32,uint256,string)":"7e5418d0","flaggedTransactions(bytes32)":"abc4fc34","flaggedTxList(uint256)":"2b792fe4","getActiveAlertsCount()":"ae4ff7e4","getAgentList()":"0f958d1d","getAgentMetrics(address)":"b55f76af","getFlaggedTransactionsCount()":"3d75e6ea","monitoringAgents(address)":"60edf70a","owner()":"8da5cb5b","raiseAlert(string,string,uint256)":"fde3eaf2","registerAgent(address,string,string)":"7216fe48","renounceOwnership()":"715018a6","reportPattern(string,bytes32,uint256)":"a5e740a1","resolveTransaction(bytes32,bool)":"87d06aff","riskThreshold()":"b43e6cb4","sanctionedEntities(bytes32)":"a85510ca","transferOwnership(address)":"f2fde38b","updateRiskThreshold(uint256)":"ec4e0203","updateSanctionsList(bytes32[],bool)":"0a1f6bd5"},"id":18}