{"abi":[{"type":"constructor","inputs":[{"name":"_guardianRegistry","type":"address","internalType":"address"},{"name":"_fraudSentinel","type":"address","internalType":"address"}],"stateMutability":"nonpayable"},{"type":"function","name":"MERKLE_TREE_HEIGHT","inputs":[],"outputs":[{"name":"","type":"uint256","internalType":"uint256"}],"stateMutability":"view"},{"type":"function","name":"approveWithdrawal","inputs":[{"name":"_requestId","type":"uint256","internalType":"uint256"}],"outputs":[],"stateMutability":"nonpayable"},{"type":"function","name":"associationSets","inputs":[{"name":"","type":"bytes32","internalType":"bytes32"}],"outputs":[{"name":"merkleRoot","type":"bytes32","internalType":"bytes32"},{"name":"provider","type":"address","internalType":"address"},{"name":"timestamp","type":"uint256","internalType":"uint256"},{"name":"ipfsHash","type":"string","internalType":"string"}],"stateMutability":"view"},{"type":"function","name":"blockWithdrawal","inputs":[{"name":"_requestId","type":"uint256","internalType":"uint256"}],"outputs":[],"stateMutability":"nonpayable"},{"type":"function","name":"commitmentHistory","inputs":[{"name":"","type":"uint256","internalType":"uint256"}],"outputs":[{"name":"","type":"bytes32","internalType":"bytes32"}],"stateMutability":"view"},{"type":"function","name":"commitments","inputs":[{"name":"","type":"bytes32","internalType":"bytes32"}],"outputs":[{"name":"","type":"bool","internalType":"bool"}],"stateMutability":"view"},{"type":"function","name":"denominationAmount","inputs":[],"outputs":[{"name":"","type":"uint256","internalType":"uint256"}],"stateMutability":"view"},{"type":"function","name":"deposit","inputs":[{"name":"_commitment","type":"bytes32","internalType":"bytes32"}],"outputs":[],"stateMutability":"payable"},{"type":"function","name":"emergencyWithdraw","inputs":[],"outputs":[],"stateMutability":"nonpayable"},{"type":"function","name":"fraudSentinel","inputs":[],"outputs":[{"name":"","type":"address","internalType":"address"}],"stateMutability":"view"},{"type":"function","name":"getAssociationSet","inputs":[{"name":"_root","type":"bytes32","internalType":"bytes32"}],"outputs":[{"name":"provider","type":"address","internalType":"address"},{"name":"timestamp","type":"uint256","internalType":"uint256"},{"name":"ipfsHash","type":"string","internalType":"string"}],"stateMutability":"view"},{"type":"function","name":"getCommitmentCount","inputs":[],"outputs":[{"name":"","type":"uint256","internalType":"uint256"}],"stateMutability":"view"},{"type":"function","name":"guardianRegistry","inputs":[],"outputs":[{"name":"","type":"address","internalType":"address"}],"stateMutability":"view"},{"type":"function","name":"nullifiers","inputs":[{"name":"","type":"bytes32","internalType":"bytes32"}],"outputs":[{"name":"","type":"bool","internalType":"bool"}],"stateMutability":"view"},{"type":"function","name":"owner","inputs":[],"outputs":[{"name":"","type":"address","internalType":"address"}],"stateMutability":"view"},{"type":"function","name":"publishAssociationSet","inputs":[{"name":"_merkleRoot","type":"bytes32","internalType":"bytes32"},{"name":"_ipfsHash","type":"string","internalType":"string"}],"outputs":[],"stateMutability":"nonpayable"},{"type":"function","name":"renounceOwnership","inputs":[],"outputs":[],"stateMutability":"nonpayable"},{"type":"function","name":"transferOwnership","inputs":[{"name":"newOwner","type":"address","internalType":"address"}],"outputs":[],"stateMutability":"nonpayable"},{"type":"function","name":"updateFraudSentinel","inputs":[{"name":"_newSentinel","type":"address","internalType":"address"}],"outputs":[],"stateMutability":"nonpayable"},{"type":"function","name":"updateGuardianRegistry","inputs":[{"name":"_newRegistry","type":"address","internalType":"address"}],"outputs":[],"stateMutability":"nonpayable"},{"type":"function","name":"withdraw","inputs":[{"name":"_nullifier","type":"bytes32","internalType":"bytes32"},{"name":"_recipient","type":"address","internalType":"address"},{"name":"_merkleProof","type":"bytes32","internalType":"bytes32"},{"name":"_associationSetRoot","type":"bytes32","internalType":"bytes32"}],"outputs":[{"name":"requestId","type":"uint256","internalType":"uint256"}],"stateMutability":"nonpayable"},{"type":"function","name":"withdrawalCounter","inputs":[],"outputs":[{"name":"","type":"uint256","internalType":"uint256"}],"stateMutability":"view"},{"type":"function","name":"withdrawalRequests","inputs":[{"name":"","type":"uint256","internalType":"uint256"}],"outputs":[{"name":"nullifier","type":"bytes32","internalType":"bytes32"},{"name":"recipient","type":"address","internalType":"address"},{"name":"amount","type":"uint256","internalType":"uint256"},{"name":"merkleProof","type":"bytes32","internalType":"bytes32"},{"name":"executed","type":"bool","internalType":"bool"}],"stateMutability":"view"},{"type":"event","name":"AssociationSetPublished","inputs":[{"name":"merkleRoot","type":"bytes32","indexed":true,"internalType":"bytes32"},{"name":"provider","type":"address","indexed":false,"internalType":"address"}],"anonymous":false},{"type":"event","name":"ComplianceCheckRequested","inputs":[{"name":"nullifier","type":"bytes32","indexed":true,"internalType":"bytes32"},{"name":"requestId","type":"uint256","indexed":false,"internalType":"uint256"}],"anonymous":false},{"type":"event","name":"Deposit","inputs":[{"name":"commitment","type":"bytes32","indexed":true,"internalType":"bytes32"},{"name":"amount","type":"uint256","indexed":false,"internalType":"uint256"},{"name":"leafIndex","type":"uint256","indexed":false,"internalType":"uint256"}],"anonymous":false},{"type":"event","name":"OwnershipTransferred","inputs":[{"name":"previousOwner","type":"address","indexed":true,"internalType":"address"},{"name":"newOwner","type":"address","indexed":true,"internalType":"address"}],"anonymous":false},{"type":"event","name":"Withdrawal","inputs":[{"name":"nullifier","type":"bytes32","indexed":true,"internalType":"bytes32"},{"name":"recipient","type":"address","indexed":false,"internalType":"address"},{"name":"amount","type":"uint256","indexed":false,"internalType":"uint256"}],"anonymous":false}],"bytecode":{"object":"0x6080604052670de0b6b3a764000060065534801561001b575f80fd5b50604051620014c5380380620014c583398101604081905261003c916100e2565b3361004681610078565b50600880546001600160a01b039384166001600160a01b03199182161790915560098054929093169116179055610113565b5f80546001600160a01b038381166001600160a01b0319831681178455604051919092169283917f8be0079c531659141344cd1fd0a4f28419497f9722a3daafe3b4186f6b6457e09190a35050565b80516001600160a01b03811681146100dd575f80fd5b919050565b5f80604083850312156100f3575f80fd5b6100fc836100c7565b915061010a602084016100c7565b90509250929050565b6113a480620001215f395ff3fe60806040526004361061013c575f3560e01c806393065d15116100b3578063d3e93ef11161006d578063d3e93ef1146103e9578063db2e21bc14610418578063dfdc0de21461042c578063e8165c041461044b578063f2fde38b1461046a578063fcc0be6b14610489575f80fd5b806393065d15146102dc578063937b2581146102f15780639eceddea146103795780639f2944c114610398578063a3c18b7b146103b7578063b214faa5146103d6575f80fd5b8063715018a611610104578063715018a61461021257806373150ac81461022657806376512f9d146102455780637fec6d2e14610264578063839df945146102925780638da5cb5b146102c0575f80fd5b80631e2b4a041461014057806320d786b5146101615780632997e86b146101895780634232a3c3146101c75780635688881f146101fe575b5f80fd5b34801561014b575f80fd5b5061015f61015a36600461104d565b61049d565b005b34801561016c575f80fd5b5061017660075481565b6040519081526020015b60405180910390f35b348015610194575f80fd5b506101b76101a33660046110c2565b60026020525f908152604090205460ff1681565b6040519015158152602001610180565b3480156101d2575f80fd5b506008546101e6906001600160a01b031681565b6040516001600160a01b039091168152602001610180565b348015610209575f80fd5b50600554610176565b34801561021d575f80fd5b5061015f6105d7565b348015610231575f80fd5b506009546101e6906001600160a01b031681565b348015610250575f80fd5b5061015f61025f3660046110f4565b6105ea565b34801561026f575f80fd5b5061028361027e3660046110c2565b61065c565b60405161018093929190611157565b34801561029d575f80fd5b506101b76102ac3660046110c2565b60016020525f908152604090205460ff1681565b3480156102cb575f80fd5b505f546001600160a01b03166101e6565b3480156102e7575f80fd5b5061017660065481565b3480156102fc575f80fd5b5061034761030b3660046110c2565b600460208190525f91825260409091208054600182015460028301546003840154939094015491936001600160a01b0390911692909160ff1685565b604080519586526001600160a01b0390941660208601529284019190915260608301521515608082015260a001610180565b348015610384575f80fd5b5061015f6103933660046110c2565b610753565b3480156103a3575f80fd5b506101766103b23660046110c2565b6107b2565b3480156103c2575f80fd5b5061015f6103d13660046110f4565b6107d1565b61015f6103e43660046110c2565b610843565b3480156103f4575f80fd5b506104086104033660046110c2565b610975565b6040516101809493929190611186565b348015610423575f80fd5b5061015f610a30565b348015610437575f80fd5b5061015f6104463660046110c2565b610aec565b348015610456575f80fd5b506101766104653660046111bc565b610ba7565b348015610475575f80fd5b5061015f6104843660046110f4565b610dd4565b348015610494575f80fd5b50610176601481565b826104e55760405162461bcd60e51b8152602060048201526013602482015272125b9d985b1a59081b595c9adb19481c9bdbdd606a1b60448201526064015b60405180910390fd5b6040518060800160405280848152602001336001600160a01b0316815260200142815260200183838080601f0160208091040260200160405190810160405280939291908181526020018383808284375f9201829052509390945250508581526003602081815260409283902085518155908501516001820180546001600160a01b0319166001600160a01b039092169190911790559184015160028301556060840151919250820190610599908261128e565b50506040513381528491507fe46f764c158de060d4f2088ce1007546e55b08d6c766d2ba6f9fdd8d3c3be4ae906020015b60405180910390a2505050565b6105df610e4a565b6105e85f610eb2565b565b6105f2610e4a565b6001600160a01b03811661063a5760405162461bcd60e51b815260206004820152600f60248201526e496e76616c6964206164647265737360881b60448201526064016104dc565b600980546001600160a01b0319166001600160a01b0392909216919091179055565b5f81815260036020818152604080842081516080810183528154815260018201546001600160a01b031693810193909352600281015491830191909152918201805484936060938593909283860191906106b590611208565b80601f01602080910402602001604051908101604052809291908181526020018280546106e190611208565b801561072c5780601f106107035761010080835404028352916020019161072c565b820191905f5260205f20905b81548152906001019060200180831161070f57829003601f168201915b50505091909252505050602081015160408201516060909201519097919650945092505050565b6008546001600160a01b031633146107a65760405162461bcd60e51b81526020600482015260166024820152754f6e6c7920677561726469616e20726567697374727960501b60448201526064016104dc565b6107af81610f01565b50565b600581815481106107c1575f80fd5b5f91825260209091200154905081565b6107d9610e4a565b6001600160a01b0381166108215760405162461bcd60e51b815260206004820152600f60248201526e496e76616c6964206164647265737360881b60448201526064016104dc565b600880546001600160a01b0319166001600160a01b0392909216919091179055565b600654341461088d5760405162461bcd60e51b815260206004820152601660248201527524b731b7b93932b1ba103232b737b6b4b730ba34b7b760511b60448201526064016104dc565b5f8181526001602052604090205460ff16156108eb5760405162461bcd60e51b815260206004820152601960248201527f436f6d6d69746d656e7420616c7265616479206578697374730000000000000060448201526064016104dc565b5f818152600160208181526040808420805460ff1916841790556005805493840181559093527f036b6384b5eca791c62761152d0c79bb0604c104a5fb6f4eb0703f3154bb3db082018490558251348152908101829052909183917fe1f1096fd8bc7d572fb7ad7e4102736b6615500975c0252ea91ef1b765c49897910160405180910390a25050565b600360208190525f9182526040909120805460018201546002830154938301805492946001600160a01b039092169391926109af90611208565b80601f01602080910402602001604051908101604052809291908181526020018280546109db90611208565b8015610a265780601f106109fd57610100808354040283529160200191610a26565b820191905f5260205f20905b815481529060010190602001808311610a0957829003601f168201915b5050505050905084565b610a38610e4a565b475f610a4b5f546001600160a01b031690565b6001600160a01b0316826040515f6040518083038185875af1925050503d805f8114610a92576040519150601f19603f3d011682016040523d82523d5f602084013e610a97565b606091505b5050905080610ae85760405162461bcd60e51b815260206004820152601960248201527f456d657267656e6379207769746864726177206661696c65640000000000000060448201526064016104dc565b5050565b6008546001600160a01b03163314610b3f5760405162461bcd60e51b81526020600482015260166024820152754f6e6c7920677561726469616e20726567697374727960501b60448201526064016104dc565b5f8181526004602081905260409091209081015460ff1615610b965760405162461bcd60e51b815260206004820152601060248201526f105b1c9958591e48195e1958dd5d195960821b60448201526064016104dc565b600401805460ff1916600117905550565b5f8481526002602052604081205460ff1615610bfe5760405162461bcd60e51b8152602060048201526016602482015275139d5b1b1a599a595c88185b1c9958591e481d5cd95960521b60448201526064016104dc565b6001600160a01b038416610c485760405162461bcd60e51b8152602060048201526011602482015270125b9d985b1a59081c9958da5c1a595b9d607a1b60448201526064016104dc565b5f82815260036020526040902054610ca25760405162461bcd60e51b815260206004820152601760248201527f496e76616c6964206173736f63696174696f6e2073657400000000000000000060448201526064016104dc565b82610cdf5760405162461bcd60e51b815260206004820152600d60248201526c24b73b30b634b210383937b7b360991b60448201526064016104dc565b5f858152600260205260408120805460ff191660011790556007805491610d058361134a565b909155506040805160a0810182528781526001600160a01b038781166020808401918252600654848601908152606085018a81525f608087018181528982526004808652918990209751885594516001880180546001600160a01b031916919097161790955590516002860155516003850155905192909101805460ff191692151592909217909155905182815291925086917f44fb52d5566d48a7fbaf8038c5495b7a7279773e2766bf4bb530a81801da3c27910160405180910390a2610dcc81610f01565b949350505050565b610ddc610e4a565b6001600160a01b038116610e415760405162461bcd60e51b815260206004820152602660248201527f4f776e61626c653a206e6577206f776e657220697320746865207a65726f206160448201526564647265737360d01b60648201526084016104dc565b6107af81610eb2565b33610e5c5f546001600160a01b031690565b6001600160a01b0316146105e85760405162461bcd60e51b815260206004820181905260248201527f4f776e61626c653a2063616c6c6572206973206e6f7420746865206f776e657260448201526064016104dc565b5f80546001600160a01b038381166001600160a01b0319831681178455604051919092169283917f8be0079c531659141344cd1fd0a4f28419497f9722a3daafe3b4186f6b6457e09190a35050565b5f8181526004602081905260409091209081015460ff1615610f585760405162461bcd60e51b815260206004820152601060248201526f105b1c9958591e48195e1958dd5d195960821b60448201526064016104dc565b60048101805460ff1916600190811790915581015460028201546040515f926001600160a01b031691908381818185875af1925050503d805f8114610fb8576040519150601f19603f3d011682016040523d82523d5f602084013e610fbd565b606091505b50509050806110005760405162461bcd60e51b815260206004820152600f60248201526e151c985b9cd9995c8819985a5b1959608a1b60448201526064016104dc565b815460018301546002840154604080516001600160a01b03909316835260208301919091527f028ab133c73f6c00ad0c5896ef40eff18378acd3d7f2ecf573c2706582bf73bf91016105ca565b5f805f6040848603121561105f575f80fd5b83359250602084013567ffffffffffffffff8082111561107d575f80fd5b818601915086601f830112611090575f80fd5b81358181111561109e575f80fd5b8760208285010111156110af575f80fd5b6020830194508093505050509250925092565b5f602082840312156110d2575f80fd5b5035919050565b80356001600160a01b03811681146110ef575f80fd5b919050565b5f60208284031215611104575f80fd5b61110d826110d9565b9392505050565b5f81518084525f5b818110156111385760208185018101518683018201520161111c565b505f602082860101526020601f19601f83011685010191505092915050565b60018060a01b0384168152826020820152606060408201525f61117d6060830184611114565b95945050505050565b84815260018060a01b0384166020820152826040820152608060608201525f6111b26080830184611114565b9695505050505050565b5f805f80608085870312156111cf575f80fd5b843593506111df602086016110d9565b93969395505050506040820135916060013590565b634e487b7160e01b5f52604160045260245ffd5b600181811c9082168061121c57607f821691505b60208210810361123a57634e487b7160e01b5f52602260045260245ffd5b50919050565b601f821115611289575f81815260208120601f850160051c810160208610156112665750805b601f850160051c820191505b8181101561128557828155600101611272565b5050505b505050565b815167ffffffffffffffff8111156112a8576112a86111f4565b6112bc816112b68454611208565b84611240565b602080601f8311600181146112ef575f84156112d85750858301515b5f19600386901b1c1916600185901b178555611285565b5f85815260208120601f198616915b8281101561131d578886015182559484019460019091019084016112fe565b508582101561133a57878501515f19600388901b60f8161c191681555b5050505050600190811b01905550565b5f6001820161136757634e487b7160e01b5f52601160045260245ffd5b506001019056fea2646970667358221220211827da2c730cb647b897a70a3d70efd3d629bf1de02ccb2fc3001132bbad3b64736f6c63430008140033","linkReferences":{}},"methodIdentifiers":{"MERKLE_TREE_HEIGHT()":"fcc0be6b","approveWithdrawal(uint256)":"9eceddea","associationSets(bytes32)":"d3e93ef1","blockWithdrawal(uint256)":"dfdc0de2","commitmentHistory(uint256)":"9f2944c1","commitments(bytes32)":"839df945","denominationAmount()":"93065d15","deposit(bytes32)":"b214faa5","emergencyWithdraw()":"db2e21bc","fraudSentinel()":"73150ac8","getAssociationSet(bytes32)":"7fec6d2e","getCommitmentCount()":"5688881f","guardianRegistry()":"4232a3c3","nullifiers(bytes32)":"2997e86b","owner()":"8da5cb5b","publishAssociationSet(bytes32,string)":"1e2b4a04","renounceOwnership()":"715018a6","transferOwnership(address)":"f2fde38b","updateFraudSentinel(address)":"76512f9d","updateGuardianRegistry(address)":"a3c18b7b","withdraw(bytes32,address,bytes32,bytes32)":"e8165c04","withdrawalCounter()":"20d786b5","withdrawalRequests(uint256)":"937b2581"},"id":20}