{"abi":[{"type":"constructor","inputs":[{"name":"_initialThreshold","type":"uint256","internalType":"uint256"}],"stateMutability":"nonpayable"},{"type":"function","name":"MAX_GUARDIANS","inputs":[],"outputs":[{"name":"","type":"uint256","internalType":"uint256"}],"stateMutability":"view"},{"type":"function","name":"MIN_GUARDIANS","inputs":[],"outputs":[{"name":"","type":"uint256","internalType":"uint256"}],"stateMutability":"view"},{"type":"function","name":"VOTING_PERIOD","inputs":[],"outputs":[{"name":"","type":"uint256","internalType":"uint256"}],"stateMutability":"view"},{"type":"function","name":"addGuardian","inputs":[{"name":"_guardian","type":"address","internalType":"address"},{"name":"_name","type":"string","internalType":"string"},{"name":"_jurisdiction","type":"string","internalType":"string"},{"name":"_leiCode","type":"string","internalType":"string"},{"name":"_institutionName","type":"string","internalType":"string"}],"outputs":[],"stateMutability":"nonpayable"},{"type":"function","name":"castVote","inputs":[{"name":"_requestId","type":"uint256","internalType":"uint256"},{"name":"_approve","type":"bool","internalType":"bool"}],"outputs":[],"stateMutability":"nonpayable"},{"type":"function","name":"consensusThreshold","inputs":[],"outputs":[{"name":"","type":"uint256","internalType":"uint256"}],"stateMutability":"view"},{"type":"function","name":"getGuardian","inputs":[{"name":"_guardian","type":"address","internalType":"address"}],"outputs":[{"name":"name","type":"string","internalType":"string"},{"name":"jurisdiction","type":"string","internalType":"string"},{"name":"leiCode","type":"string","internalType":"string"},{"name":"isActive","type":"bool","internalType":"bool"},{"name":"reputationScore","type":"uint256","internalType":"uint256"}],"stateMutability":"view"},{"type":"function","name":"getGuardianList","inputs":[],"outputs":[{"name":"","type":"address[]","internalType":"address[]"}],"stateMutability":"view"},{"type":"function","name":"getRequestStatus","inputs":[{"name":"_requestId","type":"uint256","internalType":"uint256"}],"outputs":[{"name":"approvals","type":"uint256","internalType":"uint256"},{"name":"rejections","type":"uint256","internalType":"uint256"},{"name":"executed","type":"bool","internalType":"bool"},{"name":"approved","type":"bool","internalType":"bool"},{"name":"timeRemaining","type":"uint256","internalType":"uint256"}],"stateMutability":"view"},{"type":"function","name":"guardianList","inputs":[{"name":"","type":"uint256","internalType":"uint256"}],"outputs":[{"name":"","type":"address","internalType":"address"}],"stateMutability":"view"},{"type":"function","name":"guardians","inputs":[{"name":"","type":"address","internalType":"address"}],"outputs":[{"name":"name","type":"string","internalType":"string"},{"name":"jurisdiction","type":"string","internalType":"string"},{"name":"leiCode","type":"string","internalType":"string"},{"name":"institutionName","type":"string","internalType":"string"},{"name":"isActive","type":"bool","internalType":"bool"},{"name":"reputationScore","type":"uint256","internalType":"uint256"}],"stateMutability":"view"},{"type":"function","name":"isVotingActive","inputs":[{"name":"_requestId","type":"uint256","internalType":"uint256"}],"outputs":[{"name":"","type":"bool","internalType":"bool"}],"stateMutability":"view"},{"type":"function","name":"owner","inputs":[],"outputs":[{"name":"","type":"address","internalType":"address"}],"stateMutability":"view"},{"type":"function","name":"removeGuardian","inputs":[{"name":"_guardian","type":"address","internalType":"address"}],"outputs":[],"stateMutability":"nonpayable"},{"type":"function","name":"renounceOwnership","inputs":[],"outputs":[],"stateMutability":"nonpayable"},{"type":"function","name":"requestCounter","inputs":[],"outputs":[{"name":"","type":"uint256","internalType":"uint256"}],"stateMutability":"view"},{"type":"function","name":"requests","inputs":[{"name":"","type":"uint256","internalType":"uint256"}],"outputs":[{"name":"requester","type":"address","internalType":"address"},{"name":"targetAddress","type":"string","internalType":"string"},{"name":"reason","type":"string","internalType":"string"},{"name":"evidenceHash","type":"bytes32","internalType":"bytes32"},{"name":"timestamp","type":"uint256","internalType":"uint256"},{"name":"approvals","type":"uint256","internalType":"uint256"},{"name":"rejections","type":"uint256","internalType":"uint256"},{"name":"executed","type":"bool","internalType":"bool"},{"name":"approved","type":"bool","internalType":"bool"}],"stateMutability":"view"},{"type":"function","name":"submitRequest","inputs":[{"name":"_targetAddress","type":"string","internalType":"string"},{"name":"_reason","type":"string","internalType":"string"},{"name":"_evidenceHash","type":"bytes32","internalType":"bytes32"}],"outputs":[{"name":"","type":"uint256","internalType":"uint256"}],"stateMutability":"nonpayable"},{"type":"function","name":"totalGuardians","inputs":[],"outputs":[{"name":"","type":"uint256","internalType":"uint256"}],"stateMutability":"view"},{"type":"function","name":"transferOwnership","inputs":[{"name":"newOwner","type":"address","internalType":"address"}],"outputs":[],"stateMutability":"nonpayable"},{"type":"function","name":"updateThreshold","inputs":[{"name":"_newThreshold","type":"uint256","internalType":"uint256"}],"outputs":[],"stateMutability":"nonpayable"},{"type":"event","name":"DeAnonymizationRequested","inputs":[{"name":"requestId","type":"uint256","indexed":true,"internalType":"uint256"},{"name":"requester","type":"address","indexed":false,"internalType":"address"},{"name":"reason","type":"string","indexed":false,"internalType":"string"}],"anonymous":false},{"type":"event","name":"EvidenceSubmitted","inputs":[{"name":"requestId","type":"uint256","indexed":true,"internalType":"uint256"},{"name":"evidenceHash","type":"bytes32","indexed":false,"internalType":"bytes32"}],"anonymous":false},{"type":"event","name":"GuardianAdded","inputs":[{"name":"guardian","type":"address","indexed":true,"internalType":"address"},{"name":"jurisdiction","type":"string","indexed":false,"internalType":"string"},{"name":"leiCode","type":"string","indexed":false,"internalType":"string"}],"anonymous":false},{"type":"event","name":"GuardianRemoved","inputs":[{"name":"guardian","type":"address","indexed":true,"internalType":"address"}],"anonymous":false},{"type":"event","name":"OwnershipTransferred","inputs":[{"name":"previousOwner","type":"address","indexed":true,"internalType":"address"},{"name":"newOwner","type":"address","indexed":true,"internalType":"address"}],"anonymous":false},{"type":"event","name":"RequestApproved","inputs":[{"name":"requestId","type":"uint256","indexed":true,"internalType":"uint256"},{"name":"revealedData","type":"bytes32","indexed":false,"internalType":"bytes32"}],"anonymous":false},{"type":"event","name":"RequestRejected","inputs":[{"name":"requestId","type":"uint256","indexed":true,"internalType":"uint256"}],"anonymous":false},{"type":"event","name":"ThresholdUpdated","inputs":[{"name":"newThreshold","type":"uint256","indexed":false,"internalType":"uint256"}],"anonymous":false},{"type":"event","name":"VoteCast","inputs":[{"name":"requestId","type":"uint256","indexed":true,"internalType":"uint256"},{"name":"guardian","type":"address","indexed":true,"internalType":"address"},{"name":"approve","type":"bool","indexed":false,"internalType":"bool"}],"anonymous":false}],"bytecode":{"object":"0x608060405234801562000010575f80fd5b5060405162001f0438038062001f048339810160408190526200003391620000ee565b336200003f816200009f565b506002811015620000965760405162461bcd60e51b815260206004820152601c60248201527f5468726573686f6c64206d757374206265206174206c65617374203200000000604482015260640160405180910390fd5b60055562000106565b5f80546001600160a01b038381166001600160a01b0319831681178455604051919092169283917f8be0079c531659141344cd1fd0a4f28419497f9722a3daafe3b4186f6b6457e09190a35050565b5f60208284031215620000ff575f80fd5b5051919050565b611df080620001145f395ff3fe608060405234801561000f575f80fd5b5060043610610132575f3560e01c80638da5cb5b116100b4578063c560837411610079578063c560837414610298578063d7d7442f146102ab578063d8a4676f146102be578063f2fde38b146102ff578063f91b043214610312578063f9b0b5b91461031a575f80fd5b80638da5cb5b1461023c578063973a814e1461024c578063a8246d7514610255578063b1610d7e1461026a578063b301d90214610274575f80fd5b80635ec005fa116100fa5780635ec005fa146101ab57806371404156146101d6578063715018a6146101e9578063772744b5146101f157806381d12c5814610214575f80fd5b80630633b14a1461013657806315373e3d146101645780633c8c0e4014610179578063422c1d371461019057806359048a7f14610198575b5f80fd5b6101496101443660046117c0565b610323565b60405161015b9695949392919061181c565b60405180910390f35b61017761017236600461187e565b610572565b005b61018260065481565b60405190815260200161015b565b610182600a81565b6101826101a636600461194d565b6107b1565b6101be6101b93660046119b5565b610908565b6040516001600160a01b03909116815260200161015b565b6101776101e43660046117c0565b610930565b610177610b5f565b6102046101ff3660046119b5565b610b72565b604051901515815260200161015b565b6102276102223660046119b5565b610bad565b60405161015b999897969594939291906119cc565b5f546001600160a01b03166101be565b61018260045481565b61025d610d10565b60405161015b9190611a3d565b6101826201518081565b6102876102823660046117c0565b610d70565b60405161015b959493929190611a89565b6101776102a6366004611ad6565b61102a565b6101776102b93660046119b5565b6112a3565b6102d16102cc3660046119b5565b611399565b604080519586526020860194909452911515928401929092529015156060830152608082015260a00161015b565b61017761030d3660046117c0565b61140c565b610182600381565b61018260055481565b60016020525f908152604090208054819061033d90611b8c565b80601f016020809104026020016040519081016040528092919081815260200182805461036990611b8c565b80156103b45780601f1061038b576101008083540402835291602001916103b4565b820191905f5260205f20905b81548152906001019060200180831161039757829003601f168201915b5050505050908060010180546103c990611b8c565b80601f01602080910402602001604051908101604052809291908181526020018280546103f590611b8c565b80156104405780601f1061041757610100808354040283529160200191610440565b820191905f5260205f20905b81548152906001019060200180831161042357829003601f168201915b50505050509080600201805461045590611b8c565b80601f016020809104026020016040519081016040528092919081815260200182805461048190611b8c565b80156104cc5780601f106104a3576101008083540402835291602001916104cc565b820191905f5260205f20905b8154815290600101906020018083116104af57829003601f168201915b5050505050908060030180546104e190611b8c565b80601f016020809104026020016040519081016040528092919081815260200182805461050d90611b8c565b80156105585780601f1061052f57610100808354040283529160200191610558565b820191905f5260205f20905b81548152906001019060200180831161053b57829003601f168201915b505050506004830154600590930154919260ff1691905086565b335f9081526001602052604090206004015460ff166105d85760405162461bcd60e51b815260206004820152601e60248201527f4f6e6c792061637469766520677561726469616e732063616e20766f7465000060448201526064015b60405180910390fd5b5f828152600260205260409020600781015460ff161561063a5760405162461bcd60e51b815260206004820152601860248201527f5265717565737420616c7265616479206578656375746564000000000000000060448201526064016105cf565b335f90815260088201602052604090205460ff161561068b5760405162461bcd60e51b815260206004820152600d60248201526c105b1c9958591e481d9bdd1959609a1b60448201526064016105cf565b62015180816004015461069e9190611bd8565b4211156106e35760405162461bcd60e51b8152602060048201526013602482015272159bdd1a5b99c81c195c9a5bd908195b991959606a1b60448201526064016105cf565b335f9081526008820160205260409020805460ff19166001179055811561071f57600581018054905f61071583611bf1565b9190505550610736565b600681018054905f61073083611bf1565b91905055505b6040518215158152339084907fe71fcdac32df1877c1700e7bda2a03157e20993363a28fc35ac495cefc76e4d49060200160405180910390a360055481600501541061078c57610787836001611485565b505050565b60055460065461079c9190611c09565b8160060154111561078757610787835f611485565b335f9081526001602052604081206004015460ff1661081d5760405162461bcd60e51b815260206004820152602260248201527f4f6e6c7920677561726469616e732063616e207375626d697420726571756573604482015261747360f01b60648201526084016105cf565b600480545f918261082d83611bf1565b909155505f81815260026020526040902080546001600160a01b031916331781559091506001810161085f8782611c69565b506002810161086e8682611c69565b506003810184905542600482015560078101805461ffff1916905560405182907ff5eb1c0abfabad9c7e8b3eeeade96965e7b24b7e10d186d7156e449a4b3c45e1906108bd9033908990611d25565b60405180910390a2817fd847af553122a3041cc98b9542740207b3cd214800ac5027778cc727f9384f80856040516108f791815260200190565b60405180910390a250949350505050565b60038181548110610917575f80fd5b5f918252602090912001546001600160a01b0316905081565b6109386115b1565b6001600160a01b0381165f9081526001602052604090206004015460ff166109975760405162461bcd60e51b815260206004820152601260248201527111dd585c991a585b881b9bdd08199bdd5b9960721b60448201526064016105cf565b6003600654116109f35760405162461bcd60e51b815260206004820152602160248201527f43616e6e6f7420676f2062656c6f77206d696e696d756d20677561726469616e6044820152607360f81b60648201526084016105cf565b6001600160a01b0381165f908152600160205260408120600401805460ff191690556006805491610a2383611d50565b91905055505f5b600354811015610b2857816001600160a01b031660038281548110610a5157610a51611d65565b5f918252602090912001546001600160a01b031603610b165760038054610a7a90600190611c09565b81548110610a8a57610a8a611d65565b5f91825260209091200154600380546001600160a01b039092169183908110610ab557610ab5611d65565b905f5260205f20015f6101000a8154816001600160a01b0302191690836001600160a01b031602179055506003805480610af157610af1611d79565b5f8281526020902081015f1990810180546001600160a01b0319169055019055610b28565b80610b2081611bf1565b915050610a2a565b506040516001600160a01b038216907fb8107d0c6b40be480ce3172ee66ba6d64b71f6b1685a851340036e6e2e3e3c52905f90a250565b610b676115b1565b610b705f611619565b565b5f818152600260205260408120600781015460ff16158015610ba65750620151808160040154610ba29190611bd8565b4211155b9392505050565b60026020525f9081526040902080546001820180546001600160a01b039092169291610bd890611b8c565b80601f0160208091040260200160405190810160405280929190818152602001828054610c0490611b8c565b8015610c4f5780601f10610c2657610100808354040283529160200191610c4f565b820191905f5260205f20905b815481529060010190602001808311610c3257829003601f168201915b505050505090806002018054610c6490611b8c565b80601f0160208091040260200160405190810160405280929190818152602001828054610c9090611b8c565b8015610cdb5780601f10610cb257610100808354040283529160200191610cdb565b820191905f5260205f20905b815481529060010190602001808311610cbe57829003601f168201915b505050600384015460048501546005860154600687015460079097015495969295919450925060ff8082169161010090041689565b60606003805480602002602001604051908101604052809291908181526020018280548015610d6657602002820191905f5260205f20905b81546001600160a01b03168152600190910190602001808311610d48575b5050505050905090565b60608060605f805f60015f886001600160a01b03166001600160a01b031681526020019081526020015f206040518060c00160405290815f82018054610db590611b8c565b80601f0160208091040260200160405190810160405280929190818152602001828054610de190611b8c565b8015610e2c5780601f10610e0357610100808354040283529160200191610e2c565b820191905f5260205f20905b815481529060010190602001808311610e0f57829003601f168201915b50505050508152602001600182018054610e4590611b8c565b80601f0160208091040260200160405190810160405280929190818152602001828054610e7190611b8c565b8015610ebc5780601f10610e9357610100808354040283529160200191610ebc565b820191905f5260205f20905b815481529060010190602001808311610e9f57829003601f168201915b50505050508152602001600282018054610ed590611b8c565b80601f0160208091040260200160405190810160405280929190818152602001828054610f0190611b8c565b8015610f4c5780601f10610f2357610100808354040283529160200191610f4c565b820191905f5260205f20905b815481529060010190602001808311610f2f57829003601f168201915b50505050508152602001600382018054610f6590611b8c565b80601f0160208091040260200160405190810160405280929190818152602001828054610f9190611b8c565b8015610fdc5780601f10610fb357610100808354040283529160200191610fdc565b820191905f5260205f20905b815481529060010190602001808311610fbf57829003601f168201915b5050509183525050600482015460ff16151560208083019190915260059092015460409182015282519183015190830151608084015160a090940151929b919a509850919650945092505050565b6110326115b1565b6001600160a01b0385166110885760405162461bcd60e51b815260206004820152601860248201527f496e76616c696420677561726469616e2061646472657373000000000000000060448201526064016105cf565b6001600160a01b0385165f9081526001602052604090206004015460ff16156110f35760405162461bcd60e51b815260206004820152601760248201527f477561726469616e20616c72656164792065786973747300000000000000000060448201526064016105cf565b600a600654106111455760405162461bcd60e51b815260206004820152601960248201527f4d6178696d756d20677561726469616e7320726561636865640000000000000060448201526064016105cf565b6040805160c081018252858152602080820186905281830185905260608201849052600160808301819052606460a08401526001600160a01b0389165f908152915291909120815181906111999082611c69565b50602082015160018201906111ae9082611c69565b50604082015160028201906111c39082611c69565b50606082015160038201906111d89082611c69565b50608082015160048201805460ff191691151591909117905560a090910151600590910155600380546001810182555f9182527fc2575a0e9e593c00f959f8c92f12db2869c3395a3b0502d05e2516446f71f85b0180546001600160a01b0319166001600160a01b038816179055600680549161125483611bf1565b9190505550846001600160a01b03167f80893669ebc25bdec3376ed98829e023887b24060daf43c2949bd9ec55af333b8484604051611294929190611d8d565b60405180910390a25050505050565b6112ab6115b1565b60028110156112fc5760405162461bcd60e51b815260206004820152601c60248201527f5468726573686f6c64206d757374206265206174206c6561737420320000000060448201526064016105cf565b60065481111561135e5760405162461bcd60e51b815260206004820152602760248201527f5468726573686f6c642063616e6e6f742065786365656420746f74616c20677560448201526661726469616e7360c81b60648201526084016105cf565b60058190556040518181527fadfa8ecb21b6962ebcd0adbd9ab985b7b4c5b5eb3b0dead683171565c7bfe1719060200160405180910390a150565b5f8181526002602052604081206004810154829182918291829182906113c3906201518090611bd8565b90505f4282116113d3575f6113dd565b6113dd4283611c09565b60058401546006850154600790950154909b949a5060ff8082169a506101009091041697509550919350505050565b6114146115b1565b6001600160a01b0381166114795760405162461bcd60e51b815260206004820152602660248201527f4f776e61626c653a206e6577206f776e657220697320746865207a65726f206160448201526564647265737360d01b60648201526084016105cf565b61148281611619565b50565b5f828152600260205260409020600781015460ff16156114da5760405162461bcd60e51b815260206004820152601060248201526f105b1c9958591e48195e1958dd5d195960821b60448201526064016105cf565b600781018054831580156101000261ffff199092169190911760011790915561157d575f834260405160200161151a929190918252602082015260400190565b604051602081830303815290604052805190602001209050837f4be749908cc44a2012fa386775c9437f1d48eb7b0141f50b4ea3f228d2c3c7898260405161156491815260200190565b60405180910390a2611577846001611668565b50505050565b60405183907f1fdac08e93f72ff55b24ebdf4152b7f56b98982fe9249639c1010cc52aebccd6905f90a2610787835f611668565b336115c35f546001600160a01b031690565b6001600160a01b031614610b705760405162461bcd60e51b815260206004820181905260248201527f4f776e61626c653a2063616c6c6572206973206e6f7420746865206f776e657260448201526064016105cf565b5f80546001600160a01b038381166001600160a01b0319831681178455604051919092169283917f8be0079c531659141344cd1fd0a4f28419497f9722a3daafe3b4186f6b6457e09190a35050565b5f828152600260205260408120905b600354811015611577575f6003828154811061169557611695611d65565b5f9182526020808320909101546001600160a01b03168083526008860190915260409091205490915060ff1615611792578380156116d95750600554836005015410155b806116ff5750831580156116ff57506005546006546116f89190611c09565b8360060154115b1561173c576001600160a01b0381165f9081526001602081905260408220600501805491929091611731908490611bd8565b909155506117929050565b6001600160a01b0381165f90815260016020526040902060050154600a1015611792576001600160a01b0381165f908152600160208190526040822060050180549192909161178c908490611c09565b90915550505b508061179d81611bf1565b915050611677565b80356001600160a01b03811681146117bb575f80fd5b919050565b5f602082840312156117d0575f80fd5b610ba6826117a5565b5f81518084525f5b818110156117fd576020818501810151868301820152016117e1565b505f602082860101526020601f19601f83011685010191505092915050565b60c081525f61182e60c08301896117d9565b828103602084015261184081896117d9565b9050828103604084015261185481886117d9565b9050828103606084015261186881876117d9565b9415156080840152505060a00152949350505050565b5f806040838503121561188f575f80fd5b82359150602083013580151581146118a5575f80fd5b809150509250929050565b634e487b7160e01b5f52604160045260245ffd5b5f82601f8301126118d3575f80fd5b813567ffffffffffffffff808211156118ee576118ee6118b0565b604051601f8301601f19908116603f01168101908282118183101715611916576119166118b0565b8160405283815286602085880101111561192e575f80fd5b836020870160208301375f602085830101528094505050505092915050565b5f805f6060848603121561195f575f80fd5b833567ffffffffffffffff80821115611976575f80fd5b611982878388016118c4565b94506020860135915080821115611997575f80fd5b506119a4868287016118c4565b925050604084013590509250925092565b5f602082840312156119c5575f80fd5b5035919050565b6001600160a01b038a168152610120602082018190525f906119f08382018c6117d9565b90508281036040840152611a04818b6117d9565b60608401999099525050608081019590955260a085019390935260c0840191909152151560e08301521515610100909101529392505050565b602080825282518282018190525f9190848201906040850190845b81811015611a7d5783516001600160a01b031683529284019291840191600101611a58565b50909695505050505050565b60a081525f611a9b60a08301886117d9565b8281036020840152611aad81886117d9565b90508281036040840152611ac181876117d9565b94151560608401525050608001529392505050565b5f805f805f60a08688031215611aea575f80fd5b611af3866117a5565b9450602086013567ffffffffffffffff80821115611b0f575f80fd5b611b1b89838a016118c4565b95506040880135915080821115611b30575f80fd5b611b3c89838a016118c4565b94506060880135915080821115611b51575f80fd5b611b5d89838a016118c4565b93506080880135915080821115611b72575f80fd5b50611b7f888289016118c4565b9150509295509295909350565b600181811c90821680611ba057607f821691505b602082108103611bbe57634e487b7160e01b5f52602260045260245ffd5b50919050565b634e487b7160e01b5f52601160045260245ffd5b80820180821115611beb57611beb611bc4565b92915050565b5f60018201611c0257611c02611bc4565b5060010190565b81810381811115611beb57611beb611bc4565b601f821115610787575f81815260208120601f850160051c81016020861015611c425750805b601f850160051c820191505b81811015611c6157828155600101611c4e565b505050505050565b815167ffffffffffffffff811115611c8357611c836118b0565b611c9781611c918454611b8c565b84611c1c565b602080601f831160018114611cca575f8415611cb35750858301515b5f19600386901b1c1916600185901b178555611c61565b5f85815260208120601f198616915b82811015611cf857888601518255948401946001909101908401611cd9565b5085821015611d1557878501515f19600388901b60f8161c191681555b5050505050600190811b01905550565b6001600160a01b03831681526040602082018190525f90611d48908301846117d9565b949350505050565b5f81611d5e57611d5e611bc4565b505f190190565b634e487b7160e01b5f52603260045260245ffd5b634e487b7160e01b5f52603160045260245ffd5b604081525f611d9f60408301856117d9565b8281036020840152611db181856117d9565b9594505050505056fea2646970667358221220c5f7cf08c85e2ef19da777b53d188390e0b9fe083f8adb318f1bf5269a1172a364736f6c63430008140033","linkReferences":{}},"methodIdentifiers":{"MAX_GUARDIANS()":"422c1d37","MIN_GUARDIANS()":"f91b0432","VOTING_PERIOD()":"b1610d7e","addGuardian(address,string,string,string,string)":"c5608374","castVote(uint256,bool)":"15373e3d","consensusThreshold()":"f9b0b5b9","getGuardian(address)":"b301d902","getGuardianList()":"a8246d75","getRequestStatus(uint256)":"d8a4676f","guardianList(uint256)":"5ec005fa","guardians(address)":"0633b14a","isVotingActive(uint256)":"772744b5","owner()":"8da5cb5b","removeGuardian(address)":"71404156","renounceOwnership()":"715018a6","requestCounter()":"973a814e","requests(uint256)":"81d12c58","submitRequest(string,string,bytes32)":"59048a7f","totalGuardians()":"3c8c0e40","transferOwnership(address)":"f2fde38b","updateThreshold(uint256)":"d7d7442f"},"id":21}